{
  "contractName": "CertificateVerification",
  "abi": [
    {
      "anonymous": false,
      "inputs": [
        {
          "indexed": true,
          "internalType": "string",
          "name": "certificateHash",
          "type": "string"
        },
        {
          "indexed": true,
          "internalType": "address",
          "name": "owner",
          "type": "address"
        },
        {
          "indexed": false,
          "internalType": "uint256",
          "name": "timestamp",
          "type": "uint256"
        }
      ],
      "name": "CertificateAdded",
      "type": "event"
    },
    {
      "inputs": [
        {
          "internalType": "string",
          "name": "",
          "type": "string"
        }
      ],
      "name": "certificates",
      "outputs": [
        {
          "internalType": "string",
          "name": "certificateHash",
          "type": "string"
        },
        {
          "internalType": "address",
          "name": "owner",
          "type": "address"
        },
        {
          "internalType": "uint256",
          "name": "timestamp",
          "type": "uint256"
        }
      ],
      "stateMutability": "view",
      "type": "function",
      "constant": true
    },
    {
      "inputs": [],
      "name": "documentCount",
      "outputs": [
        {
          "internalType": "uint256",
          "name": "",
          "type": "uint256"
        }
      ],
      "stateMutability": "view",
      "type": "function",
      "constant": true
    },
    {
      "inputs": [
        {
          "internalType": "string",
          "name": "_certificateHash",
          "type": "string"
        }
      ],
      "name": "addCertificate",
      "outputs": [],
      "stateMutability": "nonpayable",
      "type": "function"
    },
    {
      "inputs": [
        {
          "internalType": "string",
          "name": "_certificateHash",
          "type": "string"
        }
      ],
      "name": "verifyCertificate",
      "outputs": [
        {
          "internalType": "bool",
          "name": "",
          "type": "bool"
        }
      ],
      "stateMutability": "view",
      "type": "function",
      "constant": true
    }
  ],
  "bytecode": "0x608060405234801561001057600080fd5b50610635806100206000396000f3fe608060405234801561001057600080fd5b506004361061004c5760003560e01c80630a99e4f8146100515780638b23d875146100665780638f2b91ea1461008f578063a5b16b2e146100b1575b600080fd5b61006461005f3660046103cf565b6100c6565b005b6100796100743660046103cf565b610230565b604051610086919061048c565b60405180910390f35b6100a261009d3660046103cf565b610271565b60405161008693929190610497565b6100b9610330565b604051610086919061054e565b60008151116100f05760405162461bcd60e51b81526004016100e790610519565b60405180910390fd5b60006001600160a01b031660008260405161010b9190610470565b908152604051908190036020019020600101546001600160a01b0316146101445760405162461bcd60e51b81526004016100e7906104e2565b604080516060810182528281523360208201524281830152905160009061016c908490610470565b90815260200160405180910390206000820151816000019080519060200190610196929190610336565b506020820151600182810180546001600160a01b0319166001600160a01b039093169290921790915560409092015160029091015580549060006101d9836105c2565b909155505060405133906101ee908390610470565b60405180910390207f7283cfe2db03632478960fa764e908b7d3802114a614523858f1990a46f57e1f42604051610225919061054e565b60405180910390a350565b6000806001600160a01b031660008360405161024c9190610470565b908152604051908190036020019020600101546001600160a01b031614159050919050565b805160208183018101805160008252928201919093012091528054819061029790610587565b80601f01602080910402602001604051908101604052809291908181526020018280546102c390610587565b80156103105780601f106102e557610100808354040283529160200191610310565b820191906000526020600020905b8154815290600101906020018083116102f357829003601f168201915b50505050600183015460029093015491926001600160a01b031691905083565b60015481565b82805461034290610587565b90600052602060002090601f01602090048101928261036457600085556103aa565b82601f1061037d57805160ff19168380011785556103aa565b828001600101855582156103aa579182015b828111156103aa57825182559160200191906001019061038f565b506103b69291506103ba565b5090565b5b808211156103b657600081556001016103bb565b600060208083850312156103e1578182fd5b823567ffffffffffffffff808211156103f8578384fd5b818501915085601f83011261040b578384fd5b81358181111561041d5761041d6105e9565b604051601f8201601f1916810185018381118282101715610440576104406105e9565b6040528181528382018501881015610456578586fd5b818585018683013790810190930193909352509392505050565b60008251610482818460208701610557565b9190910192915050565b901515815260200190565b60006060825284518060608401526104b6816080850160208901610557565b6001600160a01b039490941660208301525060408101919091526080601f909201601f19160101919050565b60208082526017908201527f446f63756d656e7420616c726561647920657869737473000000000000000000604082015260600190565b6020808252818101527f436572746966696361746520686173682063616e6e6f7420626520656d707479604082015260600190565b90815260200190565b60005b8381101561057257818101518382015260200161055a565b83811115610581576000848401525b50505050565b60028104600182168061059b57607f821691505b602082108114156105bc57634e487b7160e01b600052602260045260246000fd5b50919050565b60006000198214156105e257634e487b7160e01b81526011600452602481fd5b5060010190565b634e487b7160e01b600052604160045260246000fdfea26469706673582212208ddee970e88b68cc82644ce55d3b33fca4f976c05a3c0f612dd028ab6d34360264736f6c63430008000033",
  "immutableReferences": {},
  "source": "// SPDX-License-Identifier: MIT\r\npragma solidity ^0.8.0;\r\n\r\ncontract CertificateVerification {\r\n    struct Certificate {\r\n        string certificateHash;\r\n        address owner;\r\n        uint256 timestamp;\r\n    }\r\n\r\n    mapping(string => Certificate) public certificates;\r\n    uint256 public documentCount; // Counter for the number of documents\r\n\r\n    event CertificateAdded(string indexed certificateHash, address indexed owner, uint256 timestamp);\r\n\r\n    function addCertificate(string memory _certificateHash) public {\r\n        require(bytes(_certificateHash).length > 0, \"Certificate hash cannot be empty\");\r\n        require(certificates[_certificateHash].owner == address(0), \"Document already exists\");\r\n\r\n        certificates[_certificateHash] = Certificate({\r\n            certificateHash: _certificateHash,\r\n            owner: msg.sender,\r\n            timestamp: block.timestamp\r\n        });\r\n\r\n        documentCount++; // Increment the document count\r\n\r\n        emit CertificateAdded(_certificateHash, msg.sender, block.timestamp);\r\n    }\r\n\r\n    function verifyCertificate(string memory _certificateHash) public view returns (bool) {\r\n        return certificates[_certificateHash].owner != address(0);\r\n    }\r\n}",
  "sourcePath": "D:\\Kuliah\\POLINEMA\\Skripsi\\PROJECT\\Blockchain Verifikasi Sertifikat\\blockchain\\contracts\\CertificationVerification.sol",
  "compiler": {
    "name": "solc",
    "version": "0.8.0+commit.c7dfd78e.Emscripten.clang"
  },
  "schemaVersion": "3.4.16",
  "updatedAt": "2025-03-04T01:51:28.386Z",
  "networkType": "ethereum",
  "devdoc": {
    "kind": "dev",
    "methods": {},
    "version": 1
  },
  "userdoc": {
    "kind": "user",
    "methods": {},
    "version": 1
  }
}