{
  "contractName": "CertificateVerification",
  "abi": [
    {
      "inputs": [],
      "name": "certificateCounter",
      "outputs": [
        {
          "internalType": "uint256",
          "name": "",
          "type": "uint256"
        }
      ],
      "stateMutability": "view",
      "type": "function",
      "constant": true
    },
    {
      "inputs": [
        {
          "internalType": "string",
          "name": "",
          "type": "string"
        }
      ],
      "name": "certificates",
      "outputs": [
        {
          "internalType": "string",
          "name": "certificateId",
          "type": "string"
        },
        {
          "internalType": "string",
          "name": "certificateSignature",
          "type": "string"
        }
      ],
      "stateMutability": "view",
      "type": "function",
      "constant": true
    },
    {
      "inputs": [
        {
          "internalType": "string",
          "name": "_signature",
          "type": "string"
        }
      ],
      "name": "addCertificate",
      "outputs": [
        {
          "internalType": "string",
          "name": "",
          "type": "string"
        }
      ],
      "stateMutability": "nonpayable",
      "type": "function"
    },
    {
      "inputs": [
        {
          "internalType": "string",
          "name": "_certificateId",
          "type": "string"
        }
      ],
      "name": "getCertificate",
      "outputs": [
        {
          "internalType": "bool",
          "name": "",
          "type": "bool"
        },
        {
          "internalType": "string",
          "name": "",
          "type": "string"
        },
        {
          "internalType": "string",
          "name": "",
          "type": "string"
        }
      ],
      "stateMutability": "view",
      "type": "function",
      "constant": true
    }
  ],
  "bytecode": "0x608060405234801561001057600080fd5b50610ac5806100206000396000f3fe608060405234801561001057600080fd5b506004361061004c5760003560e01c80630a99e4f81461005157806367764b261461007a5780638f2b91ea14610091578063ed0f2e75146100b2575b600080fd5b61006461005f3660046107b4565b6100d4565b60405161007191906108c1565b60405180910390f35b61008360015481565b604051908152602001610071565b6100a461009f3660046107b4565b61019e565b6040516100719291906108db565b6100c56100c03660046107b4565b6102d5565b60405161007193929190610909565b606060008251116101205760405162461bcd60e51b815260206004820152601260248201527114da59db985d1d5c99481c995c5d5a5c995960721b604482015260640160405180910390fd5b600061012a610473565b90506040518060400160405280828152602001848152506000826040516101519190610940565b9081526020016040518091039020600082015181600001908051906020019061017b929190610705565b5060208281015180516101949260018501920190610705565b5091949350505050565b80516020818301810180516000825292820191909301209152805481906101c49061095c565b80601f01602080910402602001604051908101604052809291908181526020018280546101f09061095c565b801561023d5780601f106102125761010080835404028352916020019161023d565b820191906000526020600020905b81548152906001019060200180831161022057829003601f168201915b5050505050908060010180546102529061095c565b80601f016020809104026020016040519081016040528092919081815260200182805461027e9061095c565b80156102cb5780601f106102a0576101008083540402835291602001916102cb565b820191906000526020600020905b8154815290600101906020018083116102ae57829003601f168201915b5050505050905082565b6000606080600080856040516102eb9190610940565b90815260200160405180910390206040518060400160405290816000820180546103149061095c565b80601f01602080910402602001604051908101604052809291908181526020018280546103409061095c565b801561038d5780601f106103625761010080835404028352916020019161038d565b820191906000526020600020905b81548152906001019060200180831161037057829003601f168201915b505050505081526020016001820180546103a69061095c565b80601f01602080910402602001604051908101604052809291908181526020018280546103d29061095c565b801561041f5780601f106103f45761010080835404028352916020019161041f565b820191906000526020600020905b81548152906001019060200180831161040257829003601f168201915b5050509190925250508151519192505061045a575050604080516020808201835260008083528351918201909352828152919350915061046c565b80516020909101516001945090925090505b9193909250565b600180546060916000610485836109ad565b919050555061049760015460036104bb565b6040516020016104a791906109c8565b604051602081830303815290604052905090565b606060006104c8846105fc565b80519091508381106104dc575090506105f6565b60008467ffffffffffffffff8111156104f7576104f761079e565b6040519080825280601f01601f191660200182016040528015610521576020820181803683370190505b509050600061053083876109f5565b905060005b8181101561057d57600360fc1b83828151811061055457610554610a0c565b60200101906001600160f81b031916908160001a90535080610575816109ad565b915050610535565b5060005b838110156105ee5784818151811061059b5761059b610a0c565b01602001516001600160f81b031916836105b58385610a22565b815181106105c5576105c5610a0c565b60200101906001600160f81b031916908160001a905350806105e6816109ad565b915050610581565b509093505050505b92915050565b6060816106205750506040805180820190915260018152600360fc1b602082015290565b8160005b811561064a5780610634816109ad565b91506106439050600a83610a50565b9150610624565b60008167ffffffffffffffff8111156106655761066561079e565b6040519080825280601f01601f19166020018201604052801561068f576020820181803683370190505b508593509050815b83156106fc576106a8600a85610a64565b6106b3906030610a22565b60f81b826106c083610a78565b925082815181106106d3576106d3610a0c565b60200101906001600160f81b031916908160001a9053506106f5600a85610a50565b9350610697565b50949350505050565b8280546107119061095c565b90600052602060002090601f0160209004810192826107335760008555610779565b82601f1061074c57805160ff1916838001178555610779565b82800160010185558215610779579182015b8281111561077957825182559160200191906001019061075e565b50610785929150610789565b5090565b5b80821115610785576000815560010161078a565b634e487b7160e01b600052604160045260246000fd5b6000602082840312156107c657600080fd5b813567ffffffffffffffff808211156107de57600080fd5b818401915084601f8301126107f257600080fd5b8135818111156108045761080461079e565b604051601f8201601f19908116603f0116810190838211818310171561082c5761082c61079e565b8160405282815287602084870101111561084557600080fd5b826020860160208301376000928101602001929092525095945050505050565b60005b83811015610880578181015183820152602001610868565b8381111561088f576000848401525b50505050565b600081518084526108ad816020860160208601610865565b601f01601f19169290920160200192915050565b6020815260006108d46020830184610895565b9392505050565b6040815260006108ee6040830185610895565b82810360208401526109008185610895565b95945050505050565b83151581526060602082015260006109246060830185610895565b82810360408401526109368185610895565b9695505050505050565b60008251610952818460208701610865565b9190910192915050565b600181811c9082168061097057607f821691505b6020821081141561099157634e487b7160e01b600052602260045260246000fd5b50919050565b634e487b7160e01b600052601160045260246000fd5b60006000198214156109c1576109c1610997565b5060010190565b64434552542d60d81b8152600082516109e8816005850160208701610865565b9190910160050192915050565b600082821015610a0757610a07610997565b500390565b634e487b7160e01b600052603260045260246000fd5b60008219821115610a3557610a35610997565b500190565b634e487b7160e01b600052601260045260246000fd5b600082610a5f57610a5f610a3a565b500490565b600082610a7357610a73610a3a565b500690565b600081610a8757610a87610997565b50600019019056fea264697066735822122078759bc152c892df0944ee22da556f9172496d9cdb2bd07b2c61e08db95aa6f764736f6c634300080c0033",
  "immutableReferences": {},
  "source": "// SPDX-License-Identifier: MIT\r\npragma solidity ^0.8.12;\r\n\r\ncontract CertificateVerification {\r\n    struct Certificate {\r\n        string certificateId;\r\n        string certificateSignature; \r\n    }\r\n\r\n    mapping(string => Certificate) public certificates;\r\n    uint256 public certificateCounter;\r\n\r\n    // Fungsi internal untuk membuat ID format CERT-001\r\n    function generateCertificateID() private returns (string memory) {\r\n        certificateCounter++;\r\n        return string(abi.encodePacked(\"CERT-\", zeroPad(certificateCounter, 3)));\r\n    }\r\n\r\n    // Simpan sertifikat baru\r\n    function addCertificate(string memory _signature) public returns (string memory) {\r\n        require(bytes(_signature).length > 0, \"Signature required\");\r\n\r\n        string memory certID = generateCertificateID();\r\n        certificates[certID] = Certificate(certID, _signature);\r\n        return certID;\r\n    }\r\n\r\n    // Ambil data sertifikat\r\n    function getCertificate(string memory _certificateId) public view returns (bool, string memory, string memory) {\r\n        Certificate memory cert = certificates[_certificateId];\r\n        if (bytes(cert.certificateId).length == 0) {\r\n            return (false, \"\", \"\");\r\n        }\r\n        return (true, cert.certificateId, cert.certificateSignature);\r\n    }\r\n\r\n     // Fungsi untuk konversi uint ke string (tanpa padding)\r\n    function uintToStr(uint256 _i) internal pure returns (string memory _uintAsString) {\r\n        if (_i == 0) {\r\n            return \"0\";\r\n        }\r\n        uint256 j = _i;\r\n        uint256 len;\r\n        while (j != 0) {\r\n            len++;\r\n            j /= 10;\r\n        }\r\n        bytes memory bstr = new bytes(len);\r\n        uint256 k = len;\r\n        j = _i;\r\n        while (j != 0) {\r\n            bstr[--k] = bytes1(uint8(48 + j % 10));\r\n            j /= 10;\r\n        }\r\n        return string(bstr);\r\n    }\r\n\r\n    // Fungsi untuk konversi uint ke string dengan zero-padding\r\n    function zeroPad(uint256 number, uint256 digits) internal pure returns (string memory) {\r\n        bytes memory numberStr = bytes(uintToStr(number));\r\n        uint256 length = numberStr.length;\r\n\r\n        if (length >= digits) {\r\n            return string(numberStr);\r\n        }\r\n\r\n        bytes memory padded = new bytes(digits);\r\n        uint256 padLength = digits - length;\r\n\r\n        for (uint256 i = 0; i < padLength; i++) {\r\n            padded[i] = \"0\";\r\n        }\r\n\r\n        for (uint256 i = 0; i < length; i++) {\r\n            padded[padLength + i] = numberStr[i];\r\n        }\r\n\r\n        return string(padded);\r\n    }\r\n}\r\n",
  "sourcePath": "D:\\Kuliah\\POLINEMA\\Skripsi\\PROJECT\\Blockchain Verifikasi Sertifikat\\blockchain\\contracts\\CertificationVerification.sol",
  "compiler": {
    "name": "solc",
    "version": "0.8.12+commit.f00d7308.Emscripten.clang"
  },
  "schemaVersion": "3.4.16",
  "updatedAt": "2025-05-07T15:54:33.933Z",
  "networkType": "ethereum",
  "devdoc": {
    "kind": "dev",
    "methods": {},
    "version": 1
  },
  "userdoc": {
    "kind": "user",
    "methods": {},
    "version": 1
  }
}